:100000000C94C10A0C94F20A0C94F20A0C94F20AB1
:100010000C94F20A0C94F20A0C94F20A0C94F20A70
:100020000C94F20A0C94F20A0C94F20A0C94F20A60
:100030000C94F20A0C94F20A0C94F20A0C94F20A50
:100040000C94DF8C0C94F20A0C94F20A0C94F20AD1
:100050000C94F20A0C94A3470C94F20A0C94F20A42
:100060000C94F20A0C94F20A0C94F20A0C94F20A20
:100070000C94F20A0C942C790C94F20A0C94E2473A
:100080000C94F20A0C94F20A0C94F20A0C94F20A00
:100090000C94F36F0C94F20A0C941F700C94F20AF7
:1000A0000C94F20A0C94F20A0C94F20A0C94F20AE0
:1000B0000C94F20A0C94F20A0C944B460C94F20A3B
:1000C0000C94F20A0C94F20A0C94F20A0C94766BDB
:1000D0000C94F20A0C94A26B0C94BC780C94F20A67
:1000E0000C94E6786E616E00696E66004100420015
:1000F00043004400450046004700480049004A00CC
:100100004B004C004D004E004F005000510052007B
:1001100053005400550056005700580059005A002B
:100120002100E0FFE1FFE5FFE2FFE3FFC000C100C7
:10013000C200C300C400C500C600C700C800C90093
:10014000CA00CB00CC00CD00CE00CF00D000D10043
:10015000D200D300D400D500D600D800D900DA00F0
:10016000DB00DC00DD00DE0078010001020104019B
:10017000060108010A010C010E011001120114010F
:10018000160118011A011C011E012001220124017F
:10019000260128012A012C012E01300132013401EF
:1001A000360139013B013D013F0141014301450158
:1001B00047014A014C014E015001520154015601C0
:1001C00058015A015C015E0160016201640166012F
:1001D00068016A016C016E0170017201740176019F
:1001E00079017B017D0191019103920393039403B3
:1001F000950396039703980399039A039B039C0323
:100200009D039E039F03A003A103A303A403A503CF
:10021000A603A703A803A903AA0310041104120448
:1002200013041404150416041704180419041A04FA
:100230001B041C041D041E041F04200421042204AA
:1002400023042404250426042704280429042A045A
:100250002B042C042D042E042F0401040204030497
:100260000404050406040704080409040A040B0432
:100270000C040E040F0460216121622163216421BA
:10028000652166216721682169216A216B216C2122
:100290006D216E216F2121FF22FF23FF24FF25FF07
:1002A00026FF27FF28FF29FF2AFF2BFF2CFF2DFF0A
:1002B0002EFF2FFF30FF31FF32FF33FF34FF35FFBA
:1002C00036FF37FF38FF39FF3AFFFFFF610062005A
:1002D00063006400650066006700680069006A00EA
:1002E0006B006C006D006E006F007000710072009A
:1002F00073007400750076007700780079007A004A
:10030000A100A200A300A500AC00AF00E000E10046
:10031000E200E300E400E500E600E700E800E900B1
:10032000EA00EB00EC00ED00EE00EF00F000F10061
:10033000F200F300F400F500F600F800F900FA000E
:10034000FB00FC00FD00FE00FF00010103010501B0
:10035000070109010B010D010F0111011301150125
:10036000170119011B011D011F0121012301250195
:10037000270129012B012D012F0131013301350105
:1003800037013A013C013E0140014201440146016E
:1003900048014B014D014F015101530155015701D6
:1003A00059015B015D015F01610163016501670145
:1003B00069016B016D016F017101730175017701B5
:1003C0007A017C017E019201B103B203B303B4034D
:1003D000B503B603B703B803B903BA03BB03BC0341
:1003E000BD03BE03BF03C003C103C303C403C503EE
:1003F000C603C703C803C903CA0330043104320467
:1004000033043404350436043704380439043A0418
:100410003B043C043D043E043F04400441044204C8
:1004200043044404450446044704480449044A0478
:100430004B044C044D044E044F0451045204530425
:100440005404550456045704580459045A045B04D0
:100450005C045E045F047021712172217321742198
:10046000752176217721782179217A217B217C21C0
:100470007D217E217F2141FF42FF43FF44FF45FF55
:1004800046FF47FF48FF49FF4AFF4BFF4CFF4DFF28
:100490004EFF4FFF50FF51FF52FF53FF54FF55FFD8
:1004A00056FF57FF58FF59FF5AFFFFFFC700FC00D8
:1004B000E900E200E400E000E500E700EA00EB000C
:1004C000E800EF00EE00EC00C400C500C900E60043
:1004D000C600F400F600F200FB00F900FF00D600B1
:1004E000DC00A200A300A500A7209201E100ED001E
:1004F000F300FA00F100D100AA00BA00BF001023F7
:10050000AC00BD00BC00A100AB00BB009125922552
:100510009325022524256125622556255525632529
:10052000512557255D255C255B251025142534258F
:100530002C251C2500253C255E255F255A255425A4
:1005400069256625602550256C2567256825642565
:10055000652559255825522553256B256A251825CB
:100560000C25882584258C2590258025B103DF0066
:100570009303C003A303C303B500C403A6039803F6
:10058000A903B4031E22C603B50329226122B100C8
:100590006522642220232123F7004822B00019227B
:1005A000B7001A227F20B200A025A00041542B439F
:1005B00053510D00434F4D4D204C494E452042555F
:1005C0005359000D0A005B494E464F5D3A20000D1D
:1005D0000A005B494E464F5D3A20000D0A005B4918
:1005E0004E464F5D3A20000D0A005B444542554798
:1005F0005D3A20000D0A005B44454255475D3A20B4
:10060000004E6F742052656769737465726564008B
:10061000436865636B696E6720726567697374729E
:100620006174696F6E2E2E2E000D0A005B574152C9
:100630004E494E475D3A20000D0A005B5741524E2D
:10064000494E475D3A20000D0A005B5741524E4922
:100650004E475D3A20000D0A005B494E464F5D3A19
:1006600020000D0A005B494E464F5D3A20000D0AFE
:10067000005B494E464F5D3A2000537461747573B8
:100680003A204E6F7420726573706F6E73650053FD
:1006900074617475733A2052656769737465726525
:1006A000640041542B435245473F0053656E6441FB
:1006B00054436D6457616974526573703A20657272
:1006C000726F72206F72206E6F7468696E6720722D
:1006D00065636569766564000D0A0053656E644163
:1006E00054436D6457616974526573703A206E6546
:1006F000787420617474656D707473000D0A005B0A
:1007000044454255475D3A20000D0A005B4445428E
:1007100055475D3A20004D6F64656D206E6F742003
:10072000616E737765726564204F4B000D0A005B44
:1007300044454255475D3A20000D0A005B4445425E
:1007400055475D3A200041542B43434C4B3F0D002D
:1007500053494D20736179206E6565642070696E20
:10076000005475726E20505752204B65792077687F
:10077000696C652031207365636F6E64004D6F6432
:10078000656D206E6F7420616E737765726564208D
:100790007768656E20666F7263654F464620616EAE
:1007A00064207374696C6C206E6F7420616E737753
:1007B0006572204F4B004D6F64656D206E6F742025
:1007C000616E737765726564207768656E20666F09
:1007D0007263654F464620616E64207374696C6C69
:1007E00020616E737765726564204F4B2C206D61BC
:1007F000796265205057524B4559206E6F742063C3
:100800006F6E6E65637465643F004D6F64656D3A2D
:10081000204E4F524D414C20504F57455220444F8F
:10082000574E004D6F64656D20666F7263654F466D
:1008300046002121210D0A005B435249544943419E
:100840004C5D3A20002121210D0A005B435249549E
:100850004943414C5D3A20002121210D0A005B43B0
:100860005249544943414C5D3A20004D61796265DB
:10087000206974206E6F7420636F6E6E656374659B
:1008800064206F72206974206E6F20686176652025
:10089000737570706C793F004D6F64656D20776182
:1008A00073206E6F7420656E61626C6564004D6FBD
:1008B00064656D20656E61626C6564004D6F646592
:1008C0006D20666F7263654F4E004265617265729E
:1008D0002070726F66696C65206E6F7420636C6F38
:1008E0007365640041542B53415042523D302C31CA
:1008F0000D0054696D652072656672657368656484
:1009000020766961204E545000536574204E545037
:1009100020706172616D657465723A206572726FE4
:1009200072207768696C65207265667265736869A4
:100930006E672074696D6520766961204E545000A1
:1009400041542B434E54500D00536574204E545067
:1009500020706172616D657465723A206572726FA4
:1009600072207768696C6520736574204E5450203E
:100970007365727665720041542B434E54503D228C
:10098000706F6F6C2E6E74702E6F7267222C302C0D
:10099000312C320D0041542B53415042523D322CE8
:1009A000310D00534150425220636F6E6E65637487
:1009B000656400436F6E6669677572652062656184
:1009C0007265722070726F66696C653A206572722A
:1009D0006F72207768696C652073657420636F6E31
:1009E0006E656374696E670041542B5341504252E7
:1009F0003D312C310D00436F6E666967757265205D
:100A00006265617265722070726F66696C653A200A
:100A10006572726F72207768696C652073657420E7
:100A200041504E00220D0041542B53415042523D43
:100A3000332C312C2241504E222C2200436F6E6603
:100A40006967757265206265617265722070726F88
:100A500066696C653A206572726F72207768696C9E
:100A6000652073657420434F4E54595045004154DE
:100A70002B53415042523D332C312C22434F4E5484
:100A8000595045222C2247505253220D0042656195
:100A90007265722070726F66696C65206E6F74206B
:100AA000636C6F7365640041542B53415042523D57
:100AB000302C310D0052656672657368696E67206F
:100AC00074696D6520766961204E545000457272DC
:100AD0006F723A206D6F64656D206E6F7420736164
:100AE000792053454E44204F4B2061667465722037
:100AF0007472616E736D6974206461746100446125
:100B000074612073656E64730053656E64696E670B
:100B1000206461746120746F20696E65742E2E00EC
:100B20004572726F7220656E746572696E672064BB
:100B3000617461206D6F64650041542B43495053CB
:100B4000454E440D000D0A005B494E464F5D3A206C
:100B5000000D0A005B494E464F5D3A20000D0A0029
:100B60005B494E464F5D3A2000436C6F73652063CE
:100B7000757272656E7420636F6E6E656374696FF3
:100B80006E2E2E0041542B434950434C4F53450D7C
:100B90000A004D6F64656D3A204469646E277420C5
:100BA000636F6E6E65637420746F20736572766513
:100BB00072004D6F64656D20736179733A20416CEA
:100BC000726561647920636F6E6E65637465642E0F
:100BD00000504F525420434C4F53454400436F6ED6
:100BE0006E656374656420746F20736572766572D8
:100BF00000436F6E6E656374656420746F20736567
:100C00007276657200504F525420434C4F53454406
:100C10000041542B43495053544152543D225443B4
:100C200050222C22004750525320656E61626C6541
:100C3000640047505253204E4F5420656E61626CE1
:100C400065640A0D0041542B43494653520D004739
:100C5000505253206469646E2774206272696E6713
:100C60002075700041542B43494943520D00636F76
:100C70006E66696775726174696F6E207365742042
:100C80006279207468652041542B43535454206387
:100C90006F6D6D616E64207761736E27742073656C
:100CA00074000D00220D00222C2200222C22004173
:100CB000542B435354543D22004750525320504428
:100CC0005020636F6E74657874206E6F7420626557
:100CD000656E20636C6F7365642C206D6F64656D49
:100CE000206572726F720041542B4349505348552E
:100CF000540D00636C6F73696E67207468652047DC
:100D00005052532050445020636F6E7465787400C5
:100D10006E6F77206E6F7420636F6E6E6563740004
:100D200041542B43494653520D0061736B206C6F45
:100D300063616C2069702061646465727300656E24
:100D400061626C696E6720475052532E2E2E000D43
:100D50000A005B44454255475D3A20000D0A005B9E
:100D600044454255475D3A200054696D65207761DE
:100D7000736E277420636F6E6E65637420617420D8
:100D8000313020617474656D70747300446964203F
:100D90006E6F7420636F6E6E6563742061742031B2
:100DA0003020617474656D7074730053657276657C
:100DB0007220616E7377657265640053746172743A
:100DC000696E67206E6574776F726B2070726F63E7
:100DD00065647572652E2E2E00536176696E6720EC
:100DE0007375636365737366756C00506572666FC7
:100DF000726D20746F20736176696E6720666F75FF
:100E00006E64696E6720524F4D7320696E20656570
:100E100070726F6D206D656D6F72790053656172D0
:100E2000636820706572666F726D207769746820E0
:100E30006F6E6C7920616464696E67206E657720DF
:100E400073656E736F7273004E65772073656172A0
:100E5000636820706572666F726D005361766564B9
:100E60002073656E736F7220524F4D7320776173DC
:100E700020636C65616E6564002D2D2D2D2D2D2D4B
:100E8000494E54454E442D2D2D2D2D2D2D0D0A004E
:100E90002D2D2D2D2D2D2D494E54454E442D2D2DCE
:100EA0002D2D2D2D0D0A002D2D2D2D2D2D2D494EA5
:100EB00054454E442D2D2D2D2D2D2D0D0A002D2D5B
:100EC0002D2D2D2D2D2D494E542D2D2D2D2D2D2DEE
:100ED0002D2D0D0A002D2D2D2D2D2D2D2D494E544E
:100EE0002D2D2D2D2D2D2D2D2D0D0A002D2D2D2DA2
:100EF0002D2D2D2D494E542D2D2D2D2D2D2D2D2DBE
:100F00000D0A0053656E736F7220524F4D73206946
:100F10006E206D656D6F72793A002D2D2D2D2D2D62
:100F20002D48656C6C6F2D2D2D2D2D2D2D0D0A004E
:100F30002D2D2D2D2D2D2D48656C6C6F2D2D2D2DCE
:100F40002D2D2D0D0A002D2D2D2D2D2D2D48656CAF
:100F50006C6F2D2D2D2D2D2D2D0D0A00534420634A
:100F600061726420756E6D6F756E740053442063FA
:100F7000617264206D6F756E746564004C6F6720DC
:100F800066696C65207365656B206572726F7200AF
:100F90004C6F672066696C65206E6F7420637265A4
:100FA000617465640053442063617264206E6F74E1
:100FB000206D6F756E740043617365206973204FF7
:100FC0004B00426F7820776173206F70656E6564A7
:100FD000004D61696E7320737570706C7920697350
:100FE000204F4B00546865726520776173206E6FE7
:100FF000206D61696E7320766F6C74616765004E59
:101000006F206861726477617265206572726F72B9
:101010000044533234383042204861726477617240
:101020006552657365742C20626563617573652014
:101030006974206E6F7420616E73776572656420C9
:101040007365766572616C2074696D6573004453D5
:101050003234383042206E6F742064657465637476
:10106000206F72206E6F7420726573706F6E73657F
:101070002E2E2E203A2D2800445332343830423A56
:1010800020466972737420696E697469616C697A4B
:101090006520616C7761797320776974686F757406
:1010A00020616E73776572004453323438304220C9
:1010B0004465746563743A2052656164206C656EA2
:1010C000677468206E6F74206D61746800445332D9
:1010D00034383042204465746563743A2052656147
:1010E00064206E6F74206D6174680044533234382C
:1010F0003042204465746563743A204F4B0044537A
:1011000032343830425F4465746563743A20445326
:101110003234383042204E6F7420416E73776572DE
:101120000044533234383042204465746563746936
:101130006E672E2E2E004F57577269746542797470
:1011400065506F776572202D206C6F737420636F0C
:101150006D6D756E69636174696F6E20776974680F
:101160002044533234383042207468656E207265F2
:101170007365740052656164206572726F720072EB
:101180006573706F6E7365206572726F72004F5772
:101190004C6576656C202D206C6F737420636F6DC9
:1011A0006D756E69636174696F6E2077697468200C
:1011B00044533234383042207468656E207265734F
:1011C00065740052656164206572726F72004F57DA
:1011D0005365617263683A20616E206572726F7246
:1011E000206F63637572656420736F2072652D7361
:1011F000796E632077697468204453323438304202
:10120000004F575365617263683A20746865726570
:1012100020617265206E6F207061727473206F6E32
:1012200020312D776972652C2072657475726E207D
:1012300046414C5345004F57426C6F636B3A204117
:101240006E206572726F72206F63637572656420C1
:10125000736F2072652D73796E63207769746820CF
:1012600044533234383042005265616420657272F2
:101270006F72004F57546F756368427974653A20F6
:10128000416E206572726F72206F63637572656460
:1012900020736F2072652D73796E6320776974688F
:1012A0002044533234383042005265616420657204
:1012B000726F7200416E206572726F72206F63638D
:1012C000757272656420736F2072652D73796E6319
:1012D00020776974682044533234383042005265B4
:1012E0006164206572726F7200466F756E6420656E
:1012F0006C73652064657669736500312D5769727A
:101300006520627573207265736574206572726FF3
:101310007200536561726368696E672073656E73EE
:101320006F72732E2E2E0044533138533230204DBD
:101330004F44454C0054454D505F395F424954007D
:1013400054454D505F31305F4249540054454D5033
:101350005F31315F4249540054454D505F31325F37
:1013600042495400445331383232204D4F44454CA9
:101370000044533138423230204D4F44454C0054E4
:10138000686973206973206E6F742074656D7020B6
:1013900073656E736F7200536F6D65206572726F47
:1013A00072207768696C652072656164696E672078
:1013B00073656E736F7200446576696365206E6F46
:1013C0007420617661696C61626C6520746F207253
:1013D000656164004465766963652072656164696E
:1013E0006E67206572726F723A20616E73776572F4
:1013F0002030784646004552524F522C2074656D7D
:10140000706572617475726520636F6E7665727354
:10141000696F6E20776173206E6F7420636F6D70DB
:101420006C6574650A0D00446576696365206E6FAE
:101430007420617661696C61626C65000D0A005B05
:101440005741524E494E475D3A20000D0A005B5706
:1014500041524E494E475D3A20000D0A005B57410C
:10146000524E494E475D3A200000407A10F35A0030
:10147000A0724E18090010A5D4E80000E8764817BD
:101480000000E40B54020000CA9A3B000000E1F5A2
:1014900005000080969800000040420F000000A068
:1014A0008601000000102700000000E80300000093
:1014B000006400000000000A0000000000010000BD
:1014C0000000002C76D888DC674F0823DFC1DFAE30
:1014D00059E1B1B796E5E3E453C63AE651997696F9
:1014E000E8E6C28426EB898C9B62ED407C6FFCEFC2
:1014F000BC9C9F40F2BAA56FA5F490055A2AF75CF0
:10150000936B6CF9676DC11BFCE0E40D47FEF520A1
:10151000E6B500D0ED902E03009435770500808469
:101520001E080000204E0A000000C80C333333337D
:101530000F986E12831141EF8D2114893BE65516E9
:10154000CFFEE6DB18D1844B381BF77C1D901DA421
:10155000BBE424203284725E228100C9F124ECA114
:10156000E53D276364696E6F70737578585B0000A2
:10157000B3462077A77814798C799B7A2377B27851
:10158000107911241FBECFEFD1E2DEBFCDBF00E046
:101590000CBF19E0A0E0B2E0E6E5FEE201E00BBF1F
:1015A00002C007900D92AA32B107D9F72CE0AAE247
:1015B000B9E001C01D92AD3AB207E1F715E1CCE701
:1015C000D5E100E006C022970109FE010BBF0E9491
:1015D000EB8DC037D10780E00807A9F70E940B8D7B
:1015E0000C9419970C9400002F923F924F925F92A7
:1015F0006F927F928F929F92AF92BF92CF92DF9223
:10160000EF92FF920F931F93CF93DF93CDB7DEB787
:1016100063970FB6F894DEBF0FBECDBF7C011B01F0
:101620006A01FC0117821682838181FF66C3BE01B5
:101630006F5F7F4F4B01F7019381F10193FD85911E
:1016400093FF81911F01882309F453C3853239F434
:1016500093FD859193FF81911F01853239F4B70184
:1016600090E00E94EC9256016501E5CF10E0512C0C
:1016700020E02032A0F48B3269F030F4803259F04F
:10168000833269F420612CC08D3239F0803339F413
:10169000216026C02260246023C0286021C027FD6D
:1016A00027C030ED380F3A3078F426FF06C0FAE054
:1016B0001F9F300D1124132F13C06AE0569E300D6A
:1016C0001124532E20620CC08E3221F426FD11C34A
:1016D000206406C08C3611F4206802C0883641F4BC
:1016E000F10193FD859193FF81911F018111C1CF7C
:1016F0009BEB980F933018F42061805E06C09BE945
:10170000980F933008F0AAC12F7E26FF16E02F73A2
:10171000722E853621F4F22FF0647F2E08C08636B3
:1017200021F4622F6068762E02C01111115077FEED
:1017300007C01C3348F444244394410E27E00BC0F7
:10174000183030F4212F06C027E04CE3442E03C0AC
:1017500027E017E0412C560174E0A70EB11CF601FA
:101760006081718182819381042DA4010E94D291B4
:101770006C01098100FF02C003FF06C071FC07C0B5
:1017800072FC08C0612C08C03DE2632E05C02BE24C
:10179000622E02C090E2692E802F8C7099F1662033
:1017A00011F084E001C083E0851510F0512C0BC0CE
:1017B000581A73FC08C0B70180E290E00E94EC92D6
:1017C0005A94C9F7F3CF662029F0B701862D90E02F
:1017D0000E94EC9203FD03C008EE10E002C004EE8C
:1017E00010E0F72DF0717F2EF8018491882309F421
:1017F00076C271108052B70190E00E94EC920F5FA8
:101800001F4FF2CF77FE0FC04C0C04FF04C08A813B
:10181000813309F44A94141474F5F8E0F41578F55A
:1018200088E0482E2CC076FC2AC0812F90E08C15D1
:101830009D059CF06CEFC6166FEFD60674F0772D01
:101840007068772E0AC0E2E0F0E0EC0FFD1FE10FB8
:10185000F11D8081803319F411501111F4CF77FEFE
:101860000EC044244394410E812F90E0C816D9063F
:101870002CF41C1904C04424439401C010E077FEEA
:1018800007C01C141D043CF496012F5F3F4F05C098
:1018900025E030E002C021E030E0662011F02F5F4B
:1018A0003F4F112331F0412F50E04F5F5F4F240F26
:1018B000351F452D50E02417350714F4521A01C086
:1018C000512C872D897049F4552039F0B70180E2F9
:1018D00090E00E94EC925A94F7CF662029F0B7016D
:1018E000862D90E00E94EC9273FC09C0552039F0DF
:1018F000B70180E390E00E94EC925A94F7CF77FE14
:101900005FC09C2D8D2DD7FE02C090E080E0692E37
:10191000782E40E050E0C601841991099D878C879C
:10192000960126193709280D391D812F90E0EE27E1
:10193000FF27E81BF90BFF87EE87FFEF6F167F0687
:1019400069F4B7018EE290E02B8B3A8B488B598B70
:101950000E94EC92598948893A892B89C614D70488
:1019600054F06C857D85661577052CF4F901E40F3C
:10197000F51F818101C080E371E0671A71084F5F34
:101980005F4FEE85FF856E167F066CF0B70190E025
:101990002B8B3A8B488B598B0E94EC922B893A897E
:1019A00048895989CACF6C147D0439F49A819633D9
:1019B00018F4953311F404FF81E3B70190E04BC0B4
:1019C0008A81813309F00F7EB70190E00E94EC928A
:1019D000111105C074FE18C085E490E017C0B7016E
:1019E0008EE290E00E94EC9282E066246394680E9E
:1019F000F401E80FF11D8081B70190E00E94EC92A4
:101A0000115041F3862DF1CF85E690E0B7010E9499
:101A1000EC92D7FC05C0C114D10439F404FF05C011
:101A2000D194C194D1088DE201C08BE2B70190E05E
:101A30000E94EC9280E36AE0C616D1042CF08F5F1E
:101A4000FAE0CF1AD108F7CFB70190E00E94EC92EC
:101A5000B701C601C0960E94EC9241C1833631F0B5
:101A6000833779F0833509F058C021C0560172E000
:101A7000A70EB11CF6018081898301E010E06401AA
:101A800014C05601F2E0AF0EB11CF601C080D18047
:101A900026FF03C0612F70E002C06FEF7FEFC60129
:101AA0002B8B0E94C7928C012B892F7715C0560172
:101AB000F2E0AF0EB11CF601C080D18026FF03C05A
:101AC000612F70E002C06FEF7FEFC6012B8B0E9489
:101AD000AA928C012B892068722E23FD1AC0852DB5
:101AE00090E008171907A8F4B70180E290E00E947F
:101AF000EC925A94F4CFF60177FC859177FE8191B0
:101B00006F01B70190E00E94EC9251105A9401507D
:101B100011090115110579F7E2C0843611F08936F3
:101B200051F5560127FF09C0F4E0AF0EB11CF601D4
:101B300060817181828193810AC0F2E0AF0EB11C95
:101B4000F60160817181882777FD8095982F022F9B
:101B50000F7697FF08C090958095709561957F4F9F
:101B60008F4F9F4F00682AE030E0A4010E946E93DF
:101B7000C82EC8183EC0022F853721F40F7E2AE0F8
:101B800030E01DC0097F8F3691F018F4883559F088
:101B9000B0C0803719F0883711F0ABC0006104FF86
:101BA00009C0046007C024FF08C0066006C028E022
:101BB00030E005C020E130E002C020E132E0560113
:101BC00007FF09C0F4E0AF0EB11CF601608171811E
:101BD0008281938108C0F2E0AF0EB11CF6016081F2
:101BE000718180E090E0A4010E946E93C82EC81815
:101BF0000F7706FF0BC0202F2E7FC11650F404FF75
:101C00000AC002FD08C0202F2E7E05C0DC2C202F2C
:101C100003C0DC2C01C0D12E24FF0DC0FE01EC0D51
:101C2000F11D8081803311F4297E09C022FF06C096
:101C3000D394D39404C0822F867809F0D39423FDE3
:101C400013C020FF06C01C2DD51418F4150D1D1946
:101C5000D52CD51468F4B70180E290E02B8B0E945C
:101C6000EC92D3942B89F5CFD51410F45D1801C0F4
:101C7000512C24FF12C0B70180E390E02B8B0E940F
:101C8000EC922B8922FF17C021FF03C088E590E06A
:101C900002C088E790E0B7010CC0822F867859F027
:101CA00021FD02C080E201C08BE227FD8DE2B70179
:101CB00090E00E94EC92C11638F4B70180E390E006
:101CC0000E94EC921150F7CFCA94F401EC0DF11D73
:101CD0008081B70190E00E94EC92C110F5CF5520B1
:101CE00009F4C2CCB70180E290E00E94EC925A94D1
:101CF000F6CFF7018681978102C08FEF9FEF639641
:101D00000FB6F894DEBF0FBECDBFDF91CF911F910C
:101D10000F91FF90EF90DF90CF90BF90AF909F908A
:101D20008F907F906F905F904F903F902F9008958D
:101D300022E232E0FC0131832083089581E008959E
:101D400081E00895089580E090E0089522E232E075
:101D5000FC01318320830C94D68622E232E0FC0120
:101D60003183208308950F931F93CF93DF93EC016A
:101D70008B01E881F9810084F185E02D1995882394
:101D800089F0F80101900020E9F7AF0141505109B5
:101D9000401B510BE881F9810680F781E02DB801E5
:101DA000CE011995E881F9810284F385E02DCE01F9
:101DB000DF91CF911F910F911994EF92FF920F93A2
:101DC0001F93CF93DF93CDB7DEB72C970FB6F89460
:101DD000DEBF0FBECDBF8C017F936F935F934F9398
:101DE00087EE96E09F938F939E012F5F3F4F79017F
:101DF000FF922F930E941E93D801ED91FC910084D5
:101E0000F185E02DC80119950FB6F894DEBF0FBE1D
:101E1000CDBF882391F0D7010D900020E9F7AD01E7
:101E2000415051094E195F09D801ED91FC9106808E
:101E3000F781E02DB701C8011995D801ED91FC910A
:101E40000284F385E02DC80119952C960FB6F894FD
:101E5000DEBF0FBECDBFDF91CF911F910F91FF90DD
:101E6000EF900895EF92FF920F931F93CF93DF931C
:101E7000CDB7DEB72C970FB6F894DEBF0FBECDBF3F
:101E80008C017F936F9389EF98E09F938F93CE019E
:101E900001967C01FF928F930E941E93D801ED91D1
:101EA000FC910084F185E02DC80119950F900F90E9
:101EB0000F900F900F900F90882391F0F7010190F1
:101EC0000020E9F7AF01415051094E195F09D801CF
:101ED000ED91FC910680F781E02DB701C8011995BD
:101EE000D801ED91FC910284F385E02DC80119958C
:101EF0002C960FB6F894DEBF0FBECDBFDF91CF9109
:101F00001F910F91FF90EF900895EF92FF920F9322
:101F10001F93CF93DF93CDB7DEB72C970FB6F8940E
:101F2000DEBF0FBECDBF8C017F936F935F934F9346
:101F300084E192E09F938F939E012F5F3F4F790141
:101F4000FF922F930E941E93D801ED91FC91008483
:101F5000F185E02DC80119950FB6F894DEBF0FBECC
:101F6000CDBF882391F0D7010D900020E9F7AD0196
:101F7000415051094E195F09D801ED91FC9106803D
:101F8000F781E02DB701C8011995D801ED91FC91B9
:101F90000284F385E02DC80119952C960FB6F894AC
:101FA000DEBF0FBECDBFDF91CF911F910F91FF908C
:101FB000EF900895EF92FF920F931F93CF93DF93CB
:101FC000CDB7DEB72C970FB6F894DEBF0FBECDBFEE
:101FD0008C017F936F935F934F938BE192E09F937C
:101FE0008F939E012F5F3F4F7901FF922F930E94A5
:101FF0001E93D801ED91FC910084F185E02DC8017C
:1020000019950FB6F894DEBF0FBECDBF882391F0AF
:10201000D7010D900020E9F7AD01415051094E194B
:102020005F09D801ED91FC910680F781E02DB701A1
:10203000C8011995D801ED91FC910284F385E02D3A
:10204000C80119952C960FB6F894DEBF0FBECDBF10
:10205000DF91CF911F910F91FF90EF9008950F9313
:102060001F93CF93DF938C01EB01DC01ED91FC9189
:102070000084F185E02D1995882389F0FE01649193
:10208000662369F0D801ED91FC910480F581E02D83
:10209000C80119952196FE0164916111F3CFD80111
:1020A000ED91FC910284F385E02DC801DF91CF9181
:1020B0001F910F91199480389105F0F0672BB1F4BE
:1020C0002CEA34E040E050E007C04F5F5F4F2E5FE6
:1020D0003F4F4038510571F0F901659174918617B1
:1020E000970799F7CA0180589F4F08958F3F910530
:1020F00021F018F080E090E00895FC01EE0FFF1F42
:10210000E455FC4F8591949108952CEC32E0F9014F
:102110004591549148175907F8F42EEC32E040E00D
:1021200050E001C09F014F5F5F4FF90165917491CD
:10213000F901329668177907A8F3F90125913491CE
:102140008217930709F00895FA01EE0FFF1FE4517B
:10215000FF4F85919491089540E050E0EECF8F922B
:102160009F92AF92BF92CF92DF92EF92FF920F9326
:102170001F93CF93DF93EC01CAA4DBA4ECA4FDA4CE
:102180005C010EE2A00EB11C01E010E0A701960177
:10219000B50189810E94F942811140C01C828E895B
:1021A0009F89A88DB98D4E8D5F8D68A179A197010A
:1021B0008601041B150B260B370B081719072A0776
:1021C0003B07F0F48B80912C12E08116910428F4E7
:1021D00017C08E899F89A88DB98DC80ED91EEA1E99
:1021E000FB1E01E010E0A7019601B50189810E9464
:1021F000F94221E0821A910831E08316910449F7EF
:1022000080E0DF91CF911F910F91FF90EF90DF90D1
:10221000CF90BF90AF909F908F90089581E0F1CFC5
:102220004F925F926F927F928F929F92AF92BF92E6
:10223000CF92DF92EF92FF920F931F93CF93DF9392
:10224000EC012A013B01CAA4DBA4ECA4FDA4C41642
:10225000D506E606F70609F46FC08C815E01811190
:1022600022C08EE2A80EB11C01E010E0A301920191
:10227000B50189810E94CB41811156C04AA65BA657
:102280006CA67DA6DF91CF911F910F91FF90EF90EB
:10229000DF90CF90BF90AF909F908F907F906F9086
:1022A0005F904F9008950EE2A00EB11C01E010E087
:1022B000A7019601B50189810E94F94281113AC0B6
:1022C0001C828E899F89A88DB98D4E8D5F8D68A1E6
:1022D00079A197018601041B150B260B370B0817F4
:1022E00019072A073B0708F0BFCF8B80912C12E01B
:1022F0008116910428F4B8CF8E899F89A88DB98D55
:10230000C80ED91EEA1EFB1E01E010E0A7019601CF
:10231000B50189810E94F94221E0821A910831E0D9
:102320008316910449F7A0CF81E044244A94542CA9
:102330003201A4CF81E0A6CF80E0A4CF8F929F92FC
:10234000AF92BF92CF92DF92EF92FF920F931F93C3
:10235000CF93DF93EC018C8181111DC08881833084
:1023600009F45FC040E050E060E089810E94CC4405
:1023700091E0882371F0892FDF91CF911F910F9108
:10238000FF90EF90DF90CF90BF90AF909F908F9095
:10239000089590E0F0CFCAA4DBA4ECA4FDA45E01F4
:1023A0000EE2A00EB11C01E010E0A7019601B501FC
:1023B00089810E94F942811180C01C828E899F8987
:1023C000A88DB98D4E8D5F8D68A179A19701860189
:1023D000041B150B260B370B081719072A073B0799
:1023E00008F0BCCF8B80912C12E08116910428F468
:1023F000B5CF8E899F89A88DB98DC80ED91EEA1ECA
:10240000FB1E01E010E0A7019601B50189810E9441
:10241000F94221E0821A910831E08316910449F7CC
:102420009DCF8D81813009F09DCF80E092E0BE018B
:10243000625D7F4FFB018C01119201501040E1F76A
:1024400085E59AEAFE01E45DFD4F9183808382E594
:1024500092E5A1E6B1E48EA79FA7A8ABB9AB82E74E
:1024600092E7A1E4B1E67A9780839183A283B38354
:102470008E859F85A889B989349680839183A283AC
:10248000B3838A859B85AC85BD8534968083918393
:10249000A283B3832A8D3B8D4C8D5D8D2F5F3F4F83
:1024A0004F4F5F4F2AA73BA74CA75DA701E010E065
:1024B00089810E94F9421D8255CF91E05CCF2F9215
:1024C0003F924F925F926F927F928F929F92AF92C4
:1024D000BF92CF92DF92EF92FF920F931F93CF9311
:1024E000DF93CDB7DEB760970FB6F894DEBF0FBEAF
:1024F000CDBF988B8F876A017B0148015901DC01B0
:102500008C91823009F476C1833009F42DC1813079
:10251000D1F082E060960FB6F894DEBF0FBECDBF5B
:10252000DF91CF911F910F91FF90EF90DF90CF90AF
:10253000BF90AF909F908F907F906F905F904F90E3
:102540003F902F9008951A0136942794240E351E3B
:102550005E968D919D910D90BC91A02D9101232FA0
:1025600033272695AC01BD01420F531F611D711D1C
:1025700049835A836B837C83EF85F88942A453A4F3
:1025800064A475A4441555056605770509F4CBC206
:102590008481811187C10F851889025D1F4F1E83B9
:1025A0000D8301E010E029813A814B815C816D81CE
:1025B0007E81AF85B88911968C910E94CB418111A3
:1025C0000EC109811A812B813C81AF85B8899A9609
:1025D0000D931D932D933C939D97FD01868D978DB3
:1025E000A0A1B1A128013901F1013196FE83ED834B
:1025F000F1E03F229701860101701127222733273E
:102600000B871C872D873E87C0FE87C2EF85F88920
:10261000E20DF31D46A54F7010E1819E900111243B
:10262000422B46A721E0EF85F88924832D813E8146
:10263000232F332726956C017D01C20ED31EE11C8A
:10264000F11C09811A812B813C81C016D106E2065A
:10265000F30609F46AC0A9019801DF01BE96F88764
:10266000EF8301E010E0BF0111968C910E94F942C6
:102670008111BEC0EF85F889148286899789A08D63
:10268000B18D468D578D60A171A109811A812B8171
:102690003C81041B150B260B370B081719072A075B
:1026A0003B0770F52381222E312C12E021163104D4
:1026B00038F1C982DA82EB82FC82EF80F88406C0AE
:1026C000EF85F88986899789A08DB18D480E591EAE
:1026D0006A1E7B1E01E010E0A3019201B701AF85E5
:1026E000B88911968C910E94F942B1E02B1A3108F9
:1026F000E1E02E16310421F7C980DA80EB80FC80FE
:1027000001E010E0A70196016F817885EF85F889D7
:1027100081810E94CB41811162C0AF85B8899A96B0
:10272000CD92DD92ED92FC929D97ED81FE81F1704C
:102730000B851C852D853E85012B022B032B09F46F
:10274000F5C174E0B694A794979487947A95D1F7DD
:10275000882D2F853889E20FF31FD90186A781E0E4
:1027600014968C9380E0D6CE8A019B0147E0369583
:102770002795179507954A95D1F7EF85F889868DA6
:10278000978DA0A1B1A1080F191F2A1F3B1F098314
:102790001A832B833C8342A453A464A475A4041518
:1027A00015052605370509F48EC18481811128C1DC
:1027B0000F851889025D1F4F1E830D8301E010E015
:1027C00029813A814B815C816D817E81AF85B88999
:1027D00011968C910E94CB41882309F468C18FEF38
:1027E0009FEFDC01EF85F88982A793A7A4A7B5A77F
:1027F00081E090CE33272F2D1E2D0D2DEF85F889EA
:10280000868D978DA0A1B1A1080F191F2A1F3B1F0C
:1028100009831A832B833C8342A453A464A475A424
:10282000041515052605370529F18481811191C00C
:102830000F851889025D1F4F1E830D8301E010E094
:1028400029813A814B815C816D817E81AF85B88918
:1028500011968C910E94CB418111C1CF09811A81BF
:102860002B813C81AF85B8899A960D931D932D934A
:102870003C939D97CC0CDD1CEE1CFF1CE894C0F82B
:10288000B1E0DB22EE24FF24F601BE960F85188905
:10289000E00FF11F9182808281E0D80114968C9321
:1028A00080E038CEBE96FE83ED8301E010E0A30108
:1028B0009201BF01AF85B88911968C910E94F942AF
:1028C000811196CFEF85F889148286899789A08D2A
:1028D000B18D468D578D60A171A193018201041BBA
:1028E000150B260B370B081719072A073B0708F0AB
:1028F00058CE2381022F10E00230110508F451CE8A
:10290000CF82D886E986FA86CD80DE80780106C03F
:10291000EF85F88986899789A08DB18D480E591E5B
:102920006A1E7B1E01E010E0A3019201B601AF8593
:10293000B88911968C910E94F942B1E0EB1AF10826
:10294000E1E0EE16F10421F7CF80D884E984FA841F
:1029500028CEBE96FE83ED8301E010E0A301920134
:10296000BF01AF85B88911968C910E94F9428111FF
:102970003FCFEF85F889148286899789A08DB18D24
:10298000468D578D60A171A193018201041B150B27
:10299000260B370B081719072A073B0708F04ECFFD
:1029A0002381222E312C12E02116310408F446CF67
:1029B000CF82D886E986FA86ED80FE8006C0EF8554
:1029C000F88986899789A08DB18D480E591E6A1E97
:1029D0007B1E01E010E0A3019201B701AF85B88929
:1029E00011968C910E94F942B1E02B1A3108E1E076
:1029F0002E16310421F7CF80D884E984FA841ECFC3
:102A0000BE96FE83ED8301E010E0A3019201BF01B9
:102A1000AF85B88911968C910E94F9428111E8CE58
:102A2000EF85F889148286899789A08DB18D468DAE
:102A3000578D60A171A193018201041B150B260B18
:102A4000370B081719072A073B0708F0B7CE238171
:102A5000222E312C12E02116310408F4AFCECF82A1
:102A6000D886E986FA86ED80FE8006C0EF85F88973
:102A700086899789A08DB18D480E591E6A1E7B1ECE
:102A800001E010E0A3019201B701AF85B88911966A
:102A90008C910E94F942B1E02B1A3108E1E02E1628
:102AA000310421F7CF80D884E984FA8487CE098164
:102AB0001A812B813C81AF85B8899A960D931D931D
:102AC0002D933C939D97CC0CDD1CEE1CFF1CCC0C75
:102AD000DD1CEE1CFF1CBCEFCB22B1E0DB22EE24A0
:102AE000FF24F601BE960F851889E00FF11F808143
:102AF0009181A281B38188279927AA27B07F88294D
:102B00009929AA29BB2980839183A283B38381E079
:102B1000D80114968C9380E0FDCC482DEF85F88980
:102B2000E20DF31D7ECD2A013B015ECD4F85588914
:102B3000E40FF51F86A5807F992D9F70892BDA0100
:102B40000DCE2F923F924F925F926F927F928F9213
:102B50009F92AF92BF92CF92DF92EF92FF920F932C
:102B60001F93CF93DF93CDB7DEB72D970FB6F894B1
:102B7000DEBF0FBECDBF9D878C876A017B01DC0164
:102B80008C91823009F407C1833009F4C2C08130CE
:102B9000E9F061E070E080E090E02D960FB6F894E7
:102BA000DEBF0FBECDBFDF91CF911F910F91FF9080
:102BB000EF90DF90CF90BF90AF909F908F907F90DD
:102BC0006F905F904F903F902F9008951A01369428
:102BD0002794240E351E5E968D919D910D90BC918B
:102BE000A02D9101232F33272695AC01BD01420F63
:102BF000531F611D711D49835A836B837C83EC8550
:102C0000FD8542A453A464A475A444155505660526
:102C1000770509F421C28481811105C1AC84BD848A
:102C2000FEE2AF0EB11C01E010E029813A814B8138
:102C30005C81B501AC85BD8511968C910E94CB411C
:102C400081119CC009811A812B813C81AC85BD8595
:102C50009A960D931D932D933C939D975E964D9060
:102C60005D906D907C909197480159018D01F10123
:102C70003196FE83ED83F101F170E00FF11F96A50F
:102C80009B878D819E81892F99278695480E591E95
:102C9000611C711C09811A812B813C8140165106EF
:102CA00062067306F9F0AC85BD8514968C91149775
:102CB000FD018111D8C1BE96FA87E98701E010E0D5
:102CC000A301920169857A85AC85BD8511968C91A9
:102CD0000E94CB41811152C0EC85FD8542A653A6CE
:102CE00064A675A6ED81FE81F1700C851D85E00F4F
:102CF000F11F86A59B85692F70E0782BC0FE12C25C
:102D0000729562956F7067277F70672780E090E00B
:102D100044CF2A013B0167E0769467945794479427
:102D20006A95D1F7EC85FD85868D978DA0A1B1A11F
:102D3000480E591E6A1E7B1E82A493A4A4A4B5A4A7
:102D4000481459046A047B0409F470C18481811118
:102D50000DC10C851D85025D1F4F1A83098301E09B
:102D600010E0A301920169817A81AC85BD8511963D
:102D70008C910E94CB41882309F44FC18FEF9FEFC4
:102D8000DC01EC85FD8582A793A7A4A7B5A76FEF0B
:102D90007FEFCB0102CF452E562E672E7724EC8590
:102DA000FD85868D978DA0A1B1A1480E591E6A1E82
:102DB0007B1E82A493A4A4A4B5A4481459046A0455
:102DC0007B0401F1848181117AC00C851D85025D2F
:102DD0001F4F1A83098301E010E0A301920169816A
:102DE0007A81AC85BD8511968C910E94CB41811171
:102DF000C5CFAC85BD859A964D925D926D927C92C1
:102E00009D97FD01CC0CDD1CEE1CFF1CE894C0F866
:102E1000B1E0DB22EE24FF24EC0DFD1D66A577A5B5
:102E200080E090E0BACE5F01FEE2AF0EB11C01E09F
:102E300010E0A3019201B501AC85BD8511968C917E
:102E40000E94F9428111A3CFEC85FD851482868909
:102E50009789A08DB18D468D578D60A171A1930189
:102E60008201041B150B260B370B081719072A07BD
:102E70003B0708F0D8CE8380912C12E08116910494
:102E800038F4D1CEEC85FD8586899789A08DB18DEA
:102E9000480E591E6A1E7B1E01E010E0A30192013C
:102EA000B501AC85BD8511968C910E94F942B1E0C7
:102EB0008B1A9108E1E08E16910421F7B4CEBE96EC
:102EC000FA83E98301E010E0A5019401BF01AC851C
:102ED000BD8511968C910E94F942811158CFEC85E5
:102EE000FD85148286899789A08DB18D468D578D79
:102EF00060A171A195018401041B150B260B370BF2
:102F0000081719072A073B0708F065CF2381222EEF
:102F1000312C12E02116310408F45DCFCD82DE821F
:102F2000EF82F886E980FA8006C0EC85FD85868907
:102F30009789A08DB18D880E991EAA1EBB1E01E037
:102F400010E0A5019401B701AC85BD8511968C9167
:102F50000E94F942B1E02B1A3108E1E02E1631044B
:102F600021F7CD80DE80EF80F88435CFBE96FA83DE
:102F7000E98301E010E0A5019401BF01AC85BD85A6
:102F800011968C910E94F942811101CFEC85FD854B
:102F9000148286899789A08DB18D468D578D60A149
:102FA00071A195018401041B150B260B370B081723
:102FB00019072A073B0708F0D2CE2381222E312C95
:102FC00012E02116310408F4CACECD82DE82EF82EF
:102FD000F886E980FA8006C0EC85FD8586899789A8
:102FE000A08DB18D880E991EAA1EBB1E01E010E0B7
:102FF000A5019401B701AC85BD8511968C910E9405
:10300000F942B1E02B1A3108E1E02E16310421F724
:10301000CD80DE80EF80F884A2CEAC85BD859A9607
:103020004D925D926D927C929D97FD01CC0CDD1CC2
:10303000EE1CFF1CCC0CDD1CEE1CFF1CBCEFCB22DD
:10304000B1E0DB22EE24FF24EC0DFD1D66A577A583
:1030500080A991A99F70A1CD4A015B012C013D017E
:103060000C851D8504CE9E96BA87A98701E010E0E5
:1030700029813A814B815C81BD0181810E94F942A5
:10308000811185CEAC85BD8514961C9214975696F9
:103090004D915D916D917C915997FD01868D978D34
:1030A000A0A1B1A109811A812B813C81081B190BB8
:1030B0002A0B3B0B041715072607370708F0FECD30
:1030C0008381282E312C12E02116310408F4F6CD2C
:1030D000C982DA82EB82FC82E984FA84AC85BD8500
:1030E00008C0AC85BD8556964D915D916D917C91E2
:1030F0005997840E951EA61EB71E01E010E0A5018B
:103100009401B70111968C910E94F942B1E02B1AFB
:103110003108E1E02E16310421F7C980DA80EB8016
:10312000FC80CCCD7F7080E090E037CD8F929F9275
:10313000AF92BF92CF92DF92EF92FF920F931F93C5
:10314000CF93DF938C01EB01DC0115967C936E939A
:1031500014971696CD90DD90ED90FC901997B1E004
:10316000CB16D104E104F10461F0DC01ED91FC9196
:1031700082899389A489B589C816D906EA06FB060F
:1031800070F082E0DF91CF911F910F91FF90EF904F
:10319000DF90CF90BF90AF909F908F900895C11413
:1031A000D104E104F10409F04AC020812330D9F1AF
:1031B00080859185C817D90720F762A173A184A1E2
:1031C00095A1D8011A96CD92DD92ED92FC921D97B1
:1031D0006115710581059105A1F29E013295229537
:1031E0002F7023273F702327AB01BC01420F531FD1
:1031F000611D711D1E964D935D936D937C93519748
:10320000CF70DD27CC0FDD1FC295D295D07FDC2794
:10321000C07FDC27AE96CE0FDF1F5396DC93CE9394
:10322000529780E0AFCF42A153A164A175A141158F
:1032300051056105710509F4BBCF6A017B01A280CC
:1032400020E1A29E50011124CA15DB05A8F122E05D
:10325000C216D104E104F10408F493CFC816D906CC
:10326000EA06FB0608F08DCF19C0A2E0CA16D10409
:10327000E104F10408F485CFD801ED91FC91828935
:103280009389A489B589C816D906EA06FB0608F011
:1032900078CFCA19DB09CA15DB0570F0B701A601A2
:1032A000CF014FDC6B017C018FEFC816D806E80612
:1032B000F806D9F681E066CFA701960122503109C0
:1032C000410951090297A109B109281739074A078D
:1032D0005B0768F4A281B0E00E947D8D86A097A074
:1032E000A0A4B1A4680D791D8A1D9B1D6ACFF801A9
:1032F000C286D386E486F58644CF2F923F924F92C2
:103300005F926F927F928F929F92AF92BF92CF9275
:10331000DF92EF92FF920F931F93CF93DF93CDB77E
:10332000DEB76A970FB6F894DEBF0FBECDBF5C0163
:1033300049875A876B877C87452B462B472B09F09B
:10334000D9C0DC011A960D911D912D913C911D97CC
:1033500009831A832B833C8301151105210531054F
:1033600009F0FEC052968D919D910D90BC91A02DBB
:1033700001E010E020E030E009831A832B833C83D6
:103380002801390115013EE2230E311CBA8EA98EA7
:103390004FEF441A540A640A740A481659066A061A
:1033A0007B0608F4F3C009811A812B813C8102302D
:1033B00011052105310508F400C30397A105B105E6
:1033C00008F4AEC082E0482E512C612C712CA98DDE
:1033D000BA8D8C91823009F4E5C0833009F486C13E
:1033E000813009F09DC0F201F695E795E40DF51DD9
:1033F000FE83ED835E964D915D916D917C919197E9
:10340000CF01892F992786956A017B01C80ED91EA5
:10341000E11CF11C9A968D909D90AD90BC909D976B
:10342000C814D904EA04FB0409F4C0C214968C91B0
:103430001497811164C201E010E0A7019601B10167
:10344000E98DFA8D81810E94CB41811144C0A98D03
:10345000BA8D9A96CD92DD92ED92FC929D975E96F2
:103460004D915D916D917C919197C98ADA8AEB8A31
:10347000FC8A9D010D811E810F5F1F4F1E870D87E6
:10348000ED81FE81F170E20FF31F96A59D83C801C7
:10349000892F992786954A015B01880E991EA11CE8
:1034A000B11CC814D904EA04FB0409F41CC3D901F3
:1034B00014968C9114978111B5C201E010E0A5011A
:1034C0009401B101A98DBA8D11968C910E94CB41C6
:1034D000882309F402C3A98CBA8C8FEF9FEFDC011B
:1034E000F50182A793A7A4A7B5A74FEF3FEF2FEF52
:1034F0009FEF1AC029853A854B855C8522303105BE
:103500004105510568F089019A01FC01828993897E
:10351000A489B589081719072A073B0708F457C279
:1035200041E030E020E090E0642F732F822F6A9614
:103530000FB6F894DEBF0FBECDBFDF91CF911F91C4
:103540000F91FF90EF90DF90CF90BF90AF909F9042
:103550008F907F906F905F904F903F902F90089545
:10356000FC0182899389A489B589081719072A075C
:103570003B0708F427C221E030E040E050E0298317
:103580003A834B835C8329013A01FCCE12E0411659
:1035900051046104710420F2A98DBA8D8C9182309E
:1035A00009F01BCFFD01BB24A72C962C852C868D02
:1035B000978DA0A1B1A1880E991EAA1EBB1EC2A400
:1035C000D3A4E4A4F5A48C149D04AE04BF04C9F0F4
:1035D0008481811142C101E010E0A5019401B10193
:1035E000A98DBA8D11968C910E94CB41811173CF18
:1035F000A98DBA8D9A968D929D92AD92BC929D970F
:10360000FD01D301C201880F991FAA1FBB1F8E7F26
:103610009170AA27BB27E80FF91F86A597A5A0E000
:10362000B0E00097A105B10509F0AFC0A98CBA8C34
:10363000F50182899389A489B589481659066A06D5
:103640007B0608F06DCF0FEF1FEF2FEF3FE0B301C8
:10365000A201C5010E945F12811160C209851A850D
:103660002B853C850115110521053105E1F002305E
:1036700011052105310508F453CFF501828993899D
:10368000A489B589081719072A073B0708F048CF0E
:103690009301820149855A856B857C85C5010E940D
:1036A0005F1281113BC2D5011A964D925D926D92C7
:1036B0007C921D971E968D919D910D90BC91A02D91
:1036C0008F3FEFEF9E07AE07BE0759F00197A109A4
:1036D000B109F50186879787A08BB18B85818160C1
:1036E0008583442D352D262D972D1ECF5301420164
:1036F00077E0B694A794979487947A95D1F7E98D5B
:10370000FA8D868D978DA0A1B1A1880E991EAA1E53
:10371000BB1EC2A4D3A4E4A4F5A48C149D04AE04DF
:10372000BF04C9F08481811146C001E010E0A50109
:103730009401B101A98DBA8D11968C910E94CB4153
:103740008111C9CEA98DBA8D9A968D929D92AD9216
:10375000BC929D97FD01D301C201880F991FAA1F3A
:10376000BB1F880F991FAA1FBB1F8C7F9170AA27B0
:10377000BB27E80FF91F86A597A5A0A9B1A9BF701F
:103780000097A105B10509F451CF0197A105B10535
:1037900009F4C6CE09811A812B813C8104151505D7
:1037A0002605370509F409C1E98DFA8D82899389C7
:1037B000A489B589EDCD01E010E0A7019601B10122
:1037C00081810E94F942811190CEA98DBA8D149603
:1037D0001C921497FD0186899789A08DB18D468D25
:1037E000578D60A171A197018601041B150B260B53
:1037F000370B081719072A073B0708F096CF2381D4
:10380000022F10E00230110508F48FCF8D829E82C6
:10381000AF82B886580106C0E98DFA8D86899789EE
:10382000A08DB18DC80ED91EEA1EFB1E01E010E06E
:10383000A7019601B101A98DBA8D11968C910E94B4
:10384000F942B1E0AB1AB108E1E0AE16B10421F7DC
:103850008D809E80AF80B88468CF01E010E0A70122
:103860009601B10181810E94F94281113ECEA98D5C
:10387000BA8D14961C921497FD0186899789A08DA4
:10388000B18D468D578D60A171A197018601041BF2
:10389000150B260B370B081719072A073B0708F0EB
:1038A0009ACE2381022F10E00230110508F493CE46
:1038B0008D829E82AF82B886580106C0E98DFA8D4E
:1038C00086899789A08DB18DC80ED91EEA1EFB1E70
:1038D00001E010E0A7019601B101A98DBA8D119602
:1038E0008C910E94F942B1E0AB1AB108E1E0AE164A
:1038F000B10421F78D809E80AF80B8846CCE01E04A
:1039000010E0A5019401B10111968C910E94F94239
:103910008111EBCDA98DBA8D14961C9214975696F1
:103920004D915D916D917C915997FD01868D978D9B
:10393000A0A1B1A195018401081B190B2A0B3B0B17
:10394000041715072607370708F075CD8381082F60
:1039500010E00230110508F46ECDCD86DE86EF86CC
:10396000F88A7801A98DBA8D08C0A98DBA8D5696AE
:103970004D915D916D917C915997840E951EA61E77
:10398000B71E01E010E0A5019401B10111968C91E0
:103990000E94F942B1E0EB1AF108E1E0EE16F10401
:1039A00021F7CD84DE84EF84F88845CDC98ADA8A90
:1039B000EB8AFC8A298D3A8D5DCD40E030E020E035
:1039C00090E0B2CD49805A806B807C80DBCCB9011D
:1039D000A801C501B6D8623071058105910508F4CA
:1039E0009FCD6F3F1FEF71078107910709F47DCDD0
:1039F000D5015296CD90DD90ED90FC9055976C15C9
:103A00007D058E059F0508F464C0D701C6010985B0
:103A10001A852B853C8509831A832B833C832801D7
:103A20003901B0CC01E010E0A7019601B101119677
:103A30008C910E94F942811158CDE98DFA8D148242
:103A400046895789608D718D868D978DA0A1B1A112
:103A500097018601081B190B2A0B3B0B041715074E
:103A60002607370708F029CD8381E82EF12C12E0D4
:103A7000E116F10408F421CDDB01CA018D8A9E8A8A
:103A8000AF8AB88E5701C988DA88EB88FC8806C0EF
:103A9000E98DFA8D86899789A08DB18DC80ED91EC2
:103AA000EA1EFB1E01E010E0A7019601B101A98DFD
:103AB000BA8D11968C910E94F942B1E0AB1AB1080F
:103AC000E1E0AE16B10421F78D889E88AF88B88CEE
:103AD000F4CC462F372F282F27CDE98DFA8D82A6DB
:103AE00093A6A4A6B5A6ED85FE85F170098D1A8D65
:103AF000E00FF11F26A51D81812F90E0922B40FE43
:103B000009C0929582958F7089279F708927A0E0C0
:103B1000B0E036CE9F70A0E0B0E032CE813009F048
:103B2000FFCCE3CC2F923F924F925F926F927F92A5
:103B30008F929F92AF92BF92CF92DF92EF92FF92BD
:103B40000F931F93CF93DF9300D000D0CDB7DEB794
:103B50005C018FEF9FEFD50159969C938E935897F8
:103B6000ED91FC911197FC83EB831E964D905D9037
:103B70006D907C905197FFEFFA830FEF0983AB8133
:103B8000BC819A96CD90DD90ED90FC909D97C414E9
:103B9000D504E604F70409F442C014968C911497F6
:103BA000811120C12B803C80FEE22F0E311C01E0F0
:103BB00010E0A3019201B101AB81BC8111968C91FF
:103BC0000E94CB41882319F18FEF9FEFDC01EB813D
:103BD000FC8182A793A7A4A7B5A781E026960FB67C
:103BE000F894DEBF0FBECDBFDF91CF911F910F9133
:103BF000FF90EF90DF90CF90BF90AF909F908F900D
:103C00007F906F905F904F903F902F900895AB8181
:103C1000BC819A964D925D926D927C929D97F50132
:103C200042895389DA018C918823E9F01B969C9193
:103C3000853E39F0292F2F7393FF49C02F3009F4A7
:103C40001FC10FEF1FEFF501118F008F1FEF1983B9
:103C5000D5011496ED90FC901597BFEFEB1AFB0A77
:103C6000E114F10411F484E0B9CFF50146845784DE
:103C7000608871884114510461047104A1F36701E3
:103C8000FFE0CF22DD24C114D10409F421C1D50104
:103C90000D90BC91A02DBC83AB83F501F582E4822D
:103CA000CC0CDD1CC294D29480EFD822DC24C82234
:103CB000DC24FEE2CF0ED11C0B811C81C00ED11E74
:103CC000D5015396DC92CE925297D8015ACF2F301D
:103CD00009F4D6C0B981B11138C0982F90FB9795DF
:103CE00097F9FA012181920F90FB979597F922811C
:103CF000920F90FB979597F92381920F90FB9795E0
:103D000097F92481920F90FB979597F92581920F4F
:103D100090FB979597F92681920F90FB979597F9CD
:103D20002781920F90FB979597F92085920F90FB32
:103D3000979597F92185920F90FB979597F9228592
:103D4000920FFA819F1709F44BC0D5015496ED915B
:103D5000FC915597938590FD74CF208130E090E0E1
:103D60002817390709F06DCFDA0111969C91119748
:103D70008181981366CF12969C9112978281981335
:103D800060CF13969C911397838198135ACF149602
:103D90009C9114978481981354CF15969C911597F4
:103DA000858198134ECF16969C911697868198130D
:103DB00048CF17969C9117978781981342CF1896F2
:103DC0009C911897808598133CCF19969C911997D0
:103DD0008185981336CF1A969C918285981331CF9E
:103DE00080E0FCCE1D01BEE22B0E311C01E010E094
:103DF000A7019601B101EB81FC8181810E94F9420A
:103E00008111EBCEAB81BC8114961C921497FD01FD
:103E100086899789A08DB18D468D578D60A171A13E
:103E200097018601041B150B260B370B0817190782
:103E30002A073B0708F0BBCE8380912C12E0811645
:103E4000910438F4B4CEEB81FC8186899789A08DEA
:103E5000B18DC80ED91EEA1EFB1E01E010E0A701BD
:103E60009601B101AB81BC8111968C910E94F942FF
:103E7000B1E08B1A9108E1E08E16910421F797CEFC
:103E8000D5015696ED90FC905797E114F10409F492
:103E9000DFCE86FF17C0FA01F585FA838F7B898311
:103EA00014968D919C91159759969C938E93589743
:103EB000DA011D963C90BA813B1609F453C03FEFDE
:103EC0003983C6CE0981801799F32FEF2983C0CE9D
:103ED000BFEF4B1A5B0A6B0A7B0AF50146865786D1
:103EE000608A718A428553856485758541155105BF
:103EF0006105710541F1F5010190F081E02DFC8330
:103F0000EB83828190E001979701329522952F7083
:103F100023273F70232782239323892B09F0BDCECB
:103F2000423051056105710560F0EB81FC818289A9
:103F30009389A489B589481759076A077B0708F44C
:103F40005CC082E04BCE008111811C830B83D801C1
:103F500018968D919C911997E816F90608F49DCE54
:103F600084E03CCEFA01828D938D892B09F041C00B
:103F700080818F7390E00197FDE0F89F3001F99FF9
:103F8000700C112412E8C12E12E0D12E81E090E0D5
:103F900023C0BFE36B16710460F5C4014D835E83DB
:103FA0000E9485102C0183010F5F1F4FF301EE0F5C
:103FB000FF1FEE0DFF1D808191810E9485104D81B4
:103FC0005E8148165906A9F4C4013801FFE8CF16EE
:103FD000F2E0DF0609F460C0D6012D916D01FA010F
:103FE000E20FF11D80809180009799F689208094DE
:103FF00069F33A82BFEFB9832BCECF010E94A1159E
:10400000623071058105910508F49BCF6F3FFFEF8A
:104010007F078F079F0709F4E0CDD5010D90BC9174
:10402000A02DBC83AB8352964D905D906D907C909B
:104030005597641575058605970508F014CEF501AA
:1040400062877387848795879B01AC012250310971
:1040500041095109D301C2010297A109B1092817E9
:1040600039074A075B0768F5EB81FC81A281B0E064
:104070000E947D8D2B013C0186A197A1A0A5B1A531
:10408000480E591E6A1E7B1ED5011E964D925D92EA
:104090006D927C92519701CEDA012C9126FF0CC0D3
:1040A000892B51F0F301EE0FFF1FEE0DFF1D8081F4
:1040B0009181892B09F09DCFE981E150E9833A8212
:1040C000C7CD412C512C3201DFCF2F923F924F921E
:1040D0005F926F927F928F929F92AF92BF92CF9298
:1040E000DF92EF92FF920F931F93CF93DF93CDB7A1
:1040F000DEB72B970FB6F894DEBF0FBECDBF9A8305
:1041000089837987688760E070E010D88F83811198
:1041100016C1A981BA81AD90BC9011971E96CD9021
:10412000DD90ED90FC905197212C312CBB86AA8616
:10413000CB82DC82ED82FE826101F50182A493A430
:10414000A4A4B5A40B811C812D813E81801691060B
:10415000A206B30609F449C084818111A2C0EA8491
:10416000FB84FEE2EF0EF11C01E010E02B813C81AC
:104170004D815E81B701AA85BB8511968C910E9405
:10418000CB41882331F1AA84BB848FEF9FEFDC0100
:10419000F50182A793A7A4A7B5A7F1E0FF838F81BC
:1041A0002B960FB6F894DEBF0FBECDBFDF91CF9137
:1041B0001F910F91FF90EF90DF90CF90BF90AF9045
:1041C0009F908F907F906F905F904F903F902F9037
:1041D00008952B813C814D815E81AA85BB859A968D
:1041E0002D933D934D935C939D97E981FA81A2892C
:1041F000B3898C91853E99F0882389F0C12CD12C0C
:10420000A981BA811496ED90FC901597BFEFEB1A37
:10421000FB0AE114F10461F4E7E0EF83C0CFFFEFA4
:10422000CF1ADF0A08851985C016D10649F7B7CF1E
:10423000E981FA8186859785A089B1890097A105D2
:10424000B10551F35701FFE0AF22BB24A114B10423
:1042500009F47CC0E981FA810190F081E02DFB87AF
:10426000EA878B839C83AD83BE83E981FA81F582E3
:10427000E482AA0CBB1CA294B29400EFB022BA2430
:10428000A022BA24FEE2AF0EB11C0A851B85A00E47
:10429000B11EA981BA815396BC92AE925297F80191
:1042A0004DCF7F011EE2E10EF11C01E010E0A501FF
:1042B0009401B70181810E94F942811144C0AA850D
:1042C000BB8514961C921497FD0186899789A08D51
:1042D000B18D468D578D60A171A195018401041B9C
:1042E000150B260B370B081719072A073B0708F091
:1042F0003BCF6380712C12E06116710408F434CF57
:104300002F0105C0F20186899789A08DB18D880E95
:10431000991EAA1EBB1E01E010E0A5019401B70181
:10432000D20111968C910E94F942B1E06B1A71088A
:10433000E1E06E16710431F75B864A8615CF843052
:1043400009F46ACF2CCF01E00F8329CF2C013D0166
:10435000FFEF4F1A5F0A6F0A7F0AA981BA811E9682
:104360004D925D926D927C9251971A964D915D910E
:104370006D917C911D97411551056105710539F1CC
:104380000D90BC91A02DBB87AA8712968C9190E0CE
:1043900001979701329522952F7023273F7023278D
:1043A00082239323892BE9F442305105610571057D
:1043B00058F0EA85FB8582899389A489B5894817D5
:1043C00059076A077B07A0F0B2E0BF83E8CEED9102
:1043D000FC91FB87EA8780859185E816F90608F04D
:1043E0001BCF4B825C826D827E82E981FA813FCF56
:1043F000CF010E94A1152B013C016230710581059E
:10440000910510F36F3F0FEF70078007900709F4D5
:1044100060C0A981BA810D90BC91A02DBB87AA87ED
:1044200052968D919D910D90BC91A02D48165906E4
:104430006A067B06D0F5A301920122503109410999
:104440005109E981FA81428653866486758602970E
:10445000A109B109281739074A075B07E8F5EA857A
:10446000FB85A281B0E00E947D8D6B837C838D8370
:104470009E8386A197A1A0A5B1A50B811C812D814A
:104480003E81080F191F2A1F3B1F0B831C832D839E
:104490003E83A9019801A981BA811E962D933D936F
:1044A0004D935C935197FD01E2CEE981FA814285FB
:1044B0005385648575858A859B850E947D192B01AE
:1044C0003C01611571058105910579F4F7E0FF83E1
:1044D00066CE11E01F8363CE1B821C821D821E826A
:1044E0002B813C814D815E81D6CF61307105810584
:1044F000910509F469CF6F3F0FEF700780079007B0
:1045000041F3A981BA818D919C91FC0124812111F3
:104510007AC0FC01BE96DF0100E012E01D9201505E
:104520001040E1F7A981BA810D90BC91A02DBB8705
:10453000AA879301820102501109210931090B83D5
:104540001C832D833E8352968D919D910D90BC913D
:10455000A02D0297A109B109081719072A073B07DF
:1045600008F048C0A9019801EA85FB859280A92D31
:10457000B0E00E947D8D06A117A120A531A5600F96
:10458000711F821F931FE92DAA85BB859A966D9393
:104590007D938D939C939D97812C912CEE2309F410
:1045A00052C0FD0129803A8014C042A553A564A5DC
:1045B00075A54F5F5F4F6F4F7F4F42A753A764A70B
:1045C00075A7BFEF8B1A9B0A828190E08816990627
:1045D00018F5B1E0B483D101ED91FC918481882379
:1045E00021F3CF010E94AF10811173CFD101ED9162
:1045F000FC91DBCFAA85BB851296EC91129760E007
:1046000070E0CB01C3CF0E94AF10811162CFA981AE
:10461000BA818D919C917DCFFB87EA87CB01BA014E
:10462000DC01CB0188199909A109B10982A793A7D7
:10463000A4A7B5A782899389A489B5892B813C81D8
:104640004D815E81FECEEA85FB85EACF2F923F92B7
:104650004F925F926F927F928F929F92AF92BF9292
:10466000CF92DF92EF92FF920F931F93CF93DF933E
:10467000CDB7DEB7A1970FB6F894DEBF0FBECDBFA2
:10468000DC011D921C92DB01ED91FC91309709F445
:1046900050C01081103270F01A3309F44AC0DF01A3
:1046A0001196FD0103C05A3309F43FC09F01519197
:1046B0005032C8F7A0902C09B0902D09A114B10474
:1046C00009F441C0DC01AD92BC92F50180818823E0
:1046D00039F0818149A30E94A64049A180FF2BC0E7
:1046E000D5011C9211961C9280E049A30E94D240F1
:1046F00049A180FF2AC083E0A1960FB6F894DEBFDF
:104700000FBECDBFDF91CF911F910F91FF90EF9022
:10471000DF90CF90BF90AF909F908F907F906F90E1
:104720005F904F903F902F9008952A173B0709F410
:1047300047C08BE0E1CF442321F082FF02C08AE032
:10474000DBCF80E0D9CF8CE0D7CF442311F082FDBE
:10475000F6CFF501148244244A94542C320142A627
:1047600053A664A675A61501BEE22B0E311C01E00E
:1047700010E020E030E0A901B10181810E94CB412D
:10478000811126C0D5019A961D921D921D921C92F0
:104790009D972501B4ED4B1ABDEF5B0AF2018081B4
:1047A000918185359A4A09F45DC182E0C12CD12CF2
:1047B0007601833009F4FFC18823A1F08DE09CCFFE
:1047C000103309F0B6CF1196FB01B183A08372CFED
:1047D000F50142A653A664A675A683E0E7CFC12CD7
:1047E000D12C7601D501D9968D919C91DA978115BE
:1047F000924021F7F501EC5BFF4F808191813C01F4
:10480000812C912C6D8A7E8A8F8A988E6114710416
:104810008104910449F43E96608071808280938087
:104820006D8A7E8A8F8A988ED50156966D927D927A
:104830008D929C925997DE96AC91F501A3838FEFF0
:104840008A0F823008F0BACFB0E0A40193010E9431
:104850007D8D6D8F7E8F8F8F98A323AD2283222332
:1048600009F4ACCF422F50E0CA010197842395236D
:10487000892B09F0A3CFFF9600811181D5011996EC
:104880001C930E931897C8018F709927892B09F0F4
:1048900095CF329660817181CB01A0E0B0E00097A6
:1048A000A105B10529F43D9680819181A281B38152
:1048B000F50144AD55AD4115510509F47FCF3A01DD
:1048C000812C912C698E7A8E8B8E9C8EA8015295AC
:1048D00042954F7045275F704527640E751E811CF9
:1048E000911C4D8D5E8D6F8D78A1640E751E861E98
:1048F000971E698A7A8A8B8A9C8A86159705A805ED
:10490000B90508F45BCFBC01CD01661977098809A8
:10491000990930E040E050E00E94468D21153105B4
:104920004105510509F44ACF263F6FE0360741059E
:10493000510508F4FCC2263F7FEF370741055105BA
:1049400008F0AEC282E0382E29013A01F2E04F0EA3
:10495000511C611C711CD50152964D925D926D9255
:104960007C925597F501C28ED38EE48EF58E898D9B
:104970009A8DAB8DBC8D8C0D9D1DAE1DBF1D868F80
:10498000978FA0A3B1A349895A896B897C894C0D63
:104990005D1D6E1D7F1D46A357A360A771A7012B48
:1049A00009F40CCF2D8D3E8D4F8D58A1820F931F92
:1049B000A41FB51FF50182A393A3A4A3B5A3F2E09E
:1049C0003F1609F466C2A3E0B0E0A30192010E9481
:1049D0007D8D969587957795679521E042225524A0
:1049E00066247724640D751D861D971D332433942A
:1049F000DC01CB0181509E4FAF4FBF4FF9E0B69520
:104A0000A79597958795FA95D1F76D887E888F88B9
:104A1000988C681679068A069B0608F4CFCE8FEF2D
:104A20009FEFDC01F50186879787A08BB18B82878A
:104A30009387A487B58780E88583F3E03F1609F460
:104A4000DBC1D5013C9280912A0990912B090196F6
:104A500090932B0980932A0917969C938E9316970F
:104A600080E04ACE95012C593F4F3A8B298BF901B2
:104A700080819181A281B381BB2786349144A44572
:104A8000B10509F4B7C1245E3F4F3E8B2D8BF90170
:104A900080819181A281B381BB2786349144A44552
:104AA000B10509F49CCEF501E051FE4F80818823C9
:104AB00009F49CC1349680819181A281B38189835C
:104AC0009A83AB83BC83F501FE5F8081882309F460
:104AD00089C1349680819181A281B3818D839E8327
:104AE000AF83B887F501E05FFD4F8081882309F42B
:104AF00075C1349680819181A281B38189879A871B
:104B0000AB87BC87F501E05EFD4F8081882309F407
:104B100061C1349680819181A281B3818D879E8706
:104B2000AF87B88BC980DA80EB80FC80C114D104D8
:104B3000E104F10409F041C0CD80DE80EF80F8840B
:104B4000C114D104E104F10409F07DC0C984DA8400
:104B5000EB84FC84C114D104E104F10409F053C0D6
:104B6000CD84DE84EF84F888C114D104E104F1041B
:104B700009F424CEF501148266246A94762C43014C
:104B800062A673A684A695A6BFEFCB16DB06EB063E
:104B9000FB0609F4AAC001E010E0A7019601B101EB
:104BA00081810E94CB41882309F498C0F50162A657
:104BB00073A684A695A681E09FCDD50114961C927C
:104BC00066246A94762C4301F50162A673A684A636
:104BD00095A6FFEFCF16DF06EF06FF0609F4AFC07C
:104BE00001E010E0A7019601B101D50111968C9169
:104BF0000E94CB41882309F49BC0F50162A673A6ED
:104C000084A695A699CFF501148266246A94762C21
:104C1000430162A673A684A695A6BFEFCB16DB065A
:104C2000EB06FB06C9F101E010E0A7019601B10116
:104C300081810E94CB41882341F1F50162A673A6D0
:104C400084A695A68DCFF501148266246A94762CED
:104C5000430162A673A684A695A6BFEFCB16DB061A
:104C6000EB06FB0609F494C001E010E0A7019601F1
:104C7000B10181810E94CB41882309F482C0F501F2
:104C800062A673A684A695A661CFD5019A96CD9209
:104C9000DD92ED92FC929D97F201808191818535A4
:104CA0009A4A09F05DCFE989FA8980819181A281D0
:104CB000B381BB2786349144A445B10509F492CD54
:104CC000ED89FE8980819181A281B381BB278634E1
:104CD0009144A445B10509F043CF84CDD5019A96FE
:104CE000CD92DD92ED92FC929D97D2018D919C9197
:104CF00085359A4A09F062CDE989FA8980819181E6
:104D0000A281B381BB2786349144A445B10509F43F
:104D100069CDED89FE8980819181A281B381BB2714
:104D200086349144A445B10509F45CCD8DE0E4CC12
:104D3000D5019A96CD92DD92ED92FC929D97D2018B
:104D40008D919C9185359A4A09F0F6CEE989FA89C8
:104D500080819181A281B381BB2786349144A4458F
:104D6000B10509F43FCDED89FE8980819181A28151
:104D7000B381BB2786349144A445B10509F0DCCE4C
:104D800031CDD5019A96CD92DD92ED92FC929D9710
:104D9000F2018081918185359A4A09F0D7CEE9895F
:104DA000FA8980819181A281B381BB2786349144A5
:104DB000A445B10509F416CDED89FE898081918164
:104DC000A281B381BB2786349144A445B10509F083
:104DD000BDCE08CD80E090E0DC01A0CE80E090E088
:104DE000DC018CCE80E090E0DC0178CE80E090E0C9
:104DF000DC0165CE80E0DACCF501E25AFF4F80811C
:104E00009181019709F01DCEB701A6014F5F5F4F59
:104E10006F4F7F4FC5010E941011811112CED50135
:104E200015961C92F501E45DFD4F808191818535D9
:104E30009A4A09F006CEF50186A597A5A0A9B1A9C1
:104E400082359245A146B14409F0FBCDF501EE5EF5
:104E5000FD4F80819181A281B38182379247A14425
:104E6000B14609F0EECD349680819181A281B38163
:104E7000F50186879787A08BB18BE65EFD4F808119
:104E80009181A281B381F50182879387A487B58739
:104E9000D8CDC301B201660F771F881F991FA8CD17
:104EA00029013A0162E0460E511C611C711CD501BA
:104EB00052964D925D926D927C925597F501C28EFD
:104EC000D38EE48EF58E898D9A8DAB8DBC8D8C0D35
:104ED0009D1DAE1DBF1D868F978FA0A3B1A389898D
:104EE0009A89AB89BC898C0D9D1DAE1DBF1D86A303
:104EF00097A3A0A7B1A7012B09F060CCF501E65A52
:104F0000FF4F80819181A281B381F50182A393A398
:104F1000A4A3B5A3C301B201660F771F881F991F11
:104F2000660F771F881F991F03E0302E61CD332451
:104F300033940ACDCF93DF9300D01F92CDB7DEB765
:104F40009A8389837C836B83E62FF72F309769F1EF
:104F50006081603268F06A3341F19F012F5F3F4FFB
:104F6000F90102C05A33F1F0CF0151915032D0F71C
:104F7000E0912C09F0912D09309709F01082E98118
:104F8000FA81309741F11082F0932D09E0932C09BA
:104F9000413099F080E00F900F900F900F90DF91CB
:104FA000CF91089528173907D9F08BE00F900F9013
:104FB0000F900F90DF91CF91089540E0BE016D5F9B
:104FC0007F4FCE01019642DB0F900F900F900F9014
:104FD000DF91CF91089510922D0910922C09DACF0C
:104FE000603331F28BE0E2CF2F923F924F925F928B
:104FF0006F927F928F929F92AF92BF92CF92DF92E9
:10500000EF92FF920F931F93CF93DF93CDB7DEB74D
:10501000C95DD1090FB6F894DEBF0FBECDBFC15434
:10502000DF4F99838883CF5BD040C554DF4F7983AE
:105030006883CB5BD040542E009739F1DC011D9280
:105040001C924E71BE0165547F4FCE018F579F4F0A
:10505000FDDA8823E1F0C752DF4F0FB6F894DEBFC8
:105060000FBECDBFDF91CF911F910F91FF90EF90B9
:10507000DF90CF90BF90AF909F908F907F906F9078
:105080005F904F903F902F90089589E0E4CFCE013C
:1050900089559F4FCB56DF4F99838883C559D040A0
:1050A000865A9109C956DF4F99838883C759D040E2
:1050B000C554DF4FA880B980CB5BD040F50120817B
:1050C0002F3209F4F1C52C3509F4EEC5052D0F7109
:1050D000C353DF4F0883CD5CD040C957DF4F1882E0
:1050E00019821A821B82C758D040D5012C912032D8
:1050F00008F421C76C0130E2932E1501F50180817F
:10510000FFEFAF1ABF0A8F32C1F38C35B1F390E0D5
:105110008032910508F4F0C48F32910509F459C02A
:105120008C35910509F455C0760185016624639498
:10513000712C61E070E00E945B10009779F180387B
:10514000910568F48232910549F1EFE2F2E004C082
:1051500030E08217930711F121912111F9CFD70186
:105160008D939D937D0193012F5F3F4FF8018191B6
:105170008F0190E08032910508F4C2C48F3291050E
:1051800061F18C35910549F12034310539F039014F
:1051900061E070E00E945B10009789F6CD56DF4F0A
:1051A0008881C359D040CC56DF4F9881C459D04034
:1051B000F6E03F2E252D2C7109F468C5C354DF4F4E
:1051C0008883CD5BD040C254DF4F9883CE5BD04004
:1051D00047C1612C712C21E030E05101A20EB31EB9
:1051E000F12C61147104D1F2F301EE0FFF1FEC0DED
:1051F000FD1D929182918032910511F08E9739F4C4
:1052000001E0601A71086114710499F7C7CF930126
:10521000220F331F2C0D3D1DF90111821082CB5638
:10522000DF4FA881B981C559D0409C9211969C92BC
:10523000119712969C92129713969C92139714961C
:105240009C92149715969C92159716969C92169779
:1052500017969C92179718969C92189719969C925D
:1052600019971A969C92F60100E010E002C00F5FB9
:105270001F4F8191919180329105C9F38E32910532
:10528000B1F30115110519F04F2D4360F42EF9010A
:10529000329122912E32310531F051E0651A7108B8
:1052A00061147104A9F728E030E040E050E0E12CFF
:1052B0000F5F1F4F009709F44EC08032910589F1AE
:1052C0008E32910509F422C442175307A8F56016DF
:1052D000710609F41FC48038910508F027C48B3289
:1052E000910509F45DC4E8E3F2E005C070E08617BB
:1052F000970709F455C461916111F8CFBC0161545D
:1053000071096A31710508F4D7C4BC01615671098D
:105310006A31710508F048C4FE2DF160EF2E80520D
:1053200043C46F2D6360F62EF801EE0FFF1FEC0DE6
:10533000FD1D80819181BCCF2B30310509F4C0C6A1
:105340006016710609F4EAC38F2D8360F82E60168B
:10535000710608F0E3C3CB56DF4FE881F981C559E8
:10536000D0408081853E09F493C42830310509F48A
:1053700098C48E2D8C708C3009F422C49E2D9370AD
:10538000933009F41DC4F1FC08C09E2D9370913038
:1053900009F452C5843009F44BC5F38660E070E02F
:1053A000CE018F579F4F0E94961881113DC0CE01AC
:1053B0008F579F4F0E94921DCB56DF4FE881F98196
:1053C000C559D040938581110C94453492FD0CC58C
:1053D000CD56DF4F48815981C359D040DA011B9621
:1053E0008C911B9784FFC3C55A968D919C915B97B6
:1053F000A0E0B0E0CF57DF4F28813981C158D040BD
:10540000F9012081233009F46AC3C957DF4F88832B
:105410009983AA83BB83C758D040C956DF4FC88041
:10542000D980C759D04069CE382ECB56DF4FE8819E
:10543000F981C559D040838534E0331609F440C45E
:10544000CD56DF4F28813981C359D040C354DF4F37
:1054500039832883CD5BD040852D8C7109F43FC4FE
:10546000332009F4D4C4F4E03F1210C4CB56DF4F0C
:1054700008811981C559D040C956DF4FA880B9802D
:10548000C759D0408CE0F801DE01A556BF4F01900E
:105490000D928A95E1F7CA55DF4F2880C65AD04051
:1054A00020FE4BC6D8011B961C921B97C956DF4F96
:1054B00019821882C759D040C556DF4F888099801D
:1054C000CB59D04011969C928E92C356DF4F688084
:1054D0007980CD59D04013967C926E921297C15626
:1054E000DF4F48805980CF59D04015965C924E923C
:1054F0001497CF55DF4F28813981C15AD040CF53FF
:10550000DF4F39832883C15CD04017963C932E939C
:105510001697CD55DF4F48815981C35AD040CB53A0
:10552000DF4F59834883C55CD04019965C934E93F6
:105530001897CB55DF4F5881C55AD040C354DF4F21
:105540005883CD5BD0401A965C9332E0C32ED12CA9
:10555000E12CF12C41E050E098012F5F3F4FC75301
:10556000DF4F39832883C95CD040942F9F7080E33C
:10557000890F8A3310F087E3890FC654DF4F888381
:10558000CA5BD040CA01929582958F7089279F701F
:105590008927009709F4ABC5382F3F7020E3230F0C
:1055A0002A3310F027E3230FC754DF4F2883C95B4A
:1055B000D040929582958F7089279F708927009798
:1055C00009F492C5382F3F7020E3230F2A3310F0DF
:1055D00027E3230FC854DF4F2883C85BD040929540
:1055E00082958F7089279F708927009709F479C564
:1055F00020E3280F2A3310F027E3280FC954DF4F88
:105600002883C75BD04063E070E0E3EBF0E0EC0F91
:10561000FD1FE60FF71F2EE72083D8018C91803203
:1056200009F4FEC5C753DF4F28813981C95CD040DA
:1056300080E090E007C0F9012F5F3F4F408140328A
:1056400009F4D3C4019686179707A8F3AC014F5FFE
:105650005F4FF801E80FF91F6F5F7F4FAEE7A08340
:105660004830510508F0A3C0DC0112969B012F5F62
:105670003F4FFA01E00FF11FCE52DF4FF983E8836D
:10568000C25DD040E3EBF0E0EC0FFD1FE60FF71F2B
:105690005081CE52DF4FE881F981C25DD040508306
:1056A000A830B10509F483C0AC014D5F5F4FA00F76
:1056B000B11F2830310509F480C4E3EBF0E0EC0FB2
:1056C000FD1FE20FF31FE0812F5F3F4FEC93483047
:1056D000510509F46CC0BC016C5F7F4FD801A40F69
:1056E000B51F2830310509F466C4E3EBF0E0EC0F98
:1056F000FD1FE20FF31FE0812F5F3F4FEC936830F7
:10570000710509F454C0AC014B5F5F4FD801A60F7F
:10571000B71F2830310509F44CC4E3EBF0E0EC0F7F
:10572000FD1FE20FF31FE0812F5F3F4FEC934830E6
:105730005105E9F1BC016A5F7F4FD801A40FB51F85
:105740002830310509F433C4E3EBF0E0EC0FFD1F22
:10575000E20FF31FE0812F5F3F4FEC93683071053C
:1057600031F1AC01495F5F4FD801A60FB71F283058
:10577000310509F41AC4E3EBF0E0EC0FFD1FE20F72
:10578000F31FE0812F5F3F4FEC934830510579F0D4
:10579000F801E40FF51F2830310509F0ECC320E2D1
:1057A0002083019621F480E2D80117968C9360E063
:1057B00070E0CE018F579F4F0E949618811129C526
:1057C000CE018F579F4F0E94921D811122C5A601C5
:1057D000B4E6CB16D104E104F10411F40C9449347D
:1057E000F801918280827382628255824482CF5313
:1057F000DF4F28813981C15CD04037832683CB536A
:10580000DF4F28813981C55CD04031872087C35460
:10581000DF4F3881CD5BD04032874630510508F4E8
:1058200058C1F501B701A60181919191009709F442
:1058300050C1440F551F661F771F9C0121703327ED
:10584000420F531F611D711D9695879560FF06C01D
:1058500031E2432730E1532731E06327440F551FDE
:10586000661F771F9C0121703327420F531F611D54
:10587000711D9695879560FF06C0A1E24A27A0E1B9
:105880005A27A1E06A27440F551F661F771F9C0106
:1058900021703327420F531F611D711D9695879507
:1058A00060FF06C0B1E24B27B0E15B27B1E06B2798
:1058B000440F551F661F771F9C0121703327420F2D
:1058C000531F611D711D9695879560FF06C021E2EB
:1058D000422720E1522721E06227440F551F661F0F
:1058E000771F9C0121703327420F531F611D711DCB
:1058F0009695879560FF06C031E2432730E1532734
:1059000031E06327440F551F661F771F9C012170EC
:105910003327420F531F611D711D9695879560FFB8
:1059200006C0A1E24A27A0E15A27A1E06A27440F56
:10593000551F661F771F9C0121703327420F531F8D
:10594000611D711D9695879560FF06C0B1E24B27DA
:10595000B0E15B27B1E06B27440F551F661F771F2F
:105960009C0121703327420F531F611D711D9695B5
:10597000879560FF06C021E2422720E1522721E0FF
:105980006227440F551F661F771F9C012170332724
:10599000420F531F611D711D9695879560FF06C0CC
:1059A00031E2432730E1532731E06327440F551F8D
:1059B000661F771F9C0121703327420F531F611D03
:1059C000711D9695879560FF06C0A1E24A27A0E168
:1059D0005A27A1E06A27440F551F661F771F9C01B5
:1059E00021703327420F531F611D711D96958795B6
:1059F00060FF06C0B1E24B27B0E15B27B1E06B2747
:105A0000440F551F661F771F9C0121703327420FDB
:105A1000531F611D711D9695879560FF06C021E299
:105A2000422720E1522721E06227440F551F661FBD
:105A3000771F9C0121703327420F531F611D711D79
:105A40009695879560FF06C031E2432730E15327E2
:105A500031E06327440F551F661F771F9C0121709B
:105A60003327420F531F611D711D9695879560FF67
:105A700006C0A1E24A27A0E15A27A1E06A27440F05
:105A8000551F661F771F9C0121703327420F531F3C
:105A9000611D711D9695879560FF06C0B1E24B2789
:105AA000B0E15B27B1E06B27440F551F661F771FDE
:105AB000480F591F611D711D60FFB6CE21E24227BC
:105AC00020E1522721E0622781919191009709F00E
:105AD000B0CE3FEFC31AD30AE30AF30A46CDFA0168
